{
  "_format": "hh-sol-artifact-1",
  "contractName": "Bank",
  "sourceName": "contracts/Bank.sol",
  "abi": [
    {
      "anonymous": false,
      "inputs": [
        {
          "indexed": true,
          "internalType": "address",
          "name": "previousOwner",
          "type": "address"
        },
        {
          "indexed": true,
          "internalType": "address",
          "name": "newOwner",
          "type": "address"
        }
      ],
      "name": "OwnershipTransferred",
      "type": "event"
    },
    {
      "anonymous": false,
      "inputs": [
        {
          "indexed": true,
          "internalType": "address",
          "name": "_from",
          "type": "address"
        },
        {
          "indexed": true,
          "internalType": "address",
          "name": "_to",
          "type": "address"
        },
        {
          "indexed": false,
          "internalType": "uint256",
          "name": "_value",
          "type": "uint256"
        }
      ],
      "name": "Transfer",
      "type": "event"
    },
    {
      "stateMutability": "payable",
      "type": "fallback"
    },
    {
      "inputs": [],
      "name": "_paused",
      "outputs": [
        {
          "internalType": "bool",
          "name": "",
          "type": "bool"
        }
      ],
      "stateMutability": "view",
      "type": "function"
    },
    {
      "inputs": [
        {
          "internalType": "address",
          "name": "account",
          "type": "address"
        }
      ],
      "name": "balanceOf",
      "outputs": [
        {
          "internalType": "uint256",
          "name": "",
          "type": "uint256"
        }
      ],
      "stateMutability": "view",
      "type": "function"
    },
    {
      "inputs": [],
      "name": "deposit",
      "outputs": [],
      "stateMutability": "payable",
      "type": "function"
    },
    {
      "inputs": [],
      "name": "owner",
      "outputs": [
        {
          "internalType": "address",
          "name": "",
          "type": "address"
        }
      ],
      "stateMutability": "view",
      "type": "function"
    },
    {
      "inputs": [],
      "name": "renounceOwnership",
      "outputs": [],
      "stateMutability": "nonpayable",
      "type": "function"
    },
    {
      "inputs": [
        {
          "internalType": "bool",
          "name": "val",
          "type": "bool"
        }
      ],
      "name": "setPaused",
      "outputs": [],
      "stateMutability": "nonpayable",
      "type": "function"
    },
    {
      "inputs": [
        {
          "internalType": "address",
          "name": "_to",
          "type": "address"
        },
        {
          "internalType": "uint256",
          "name": "_amount",
          "type": "uint256"
        }
      ],
      "name": "transfer",
      "outputs": [],
      "stateMutability": "nonpayable",
      "type": "function"
    },
    {
      "inputs": [
        {
          "internalType": "address",
          "name": "newOwner",
          "type": "address"
        }
      ],
      "name": "transferOwnership",
      "outputs": [],
      "stateMutability": "nonpayable",
      "type": "function"
    },
    {
      "inputs": [],
      "name": "user",
      "outputs": [
        {
          "internalType": "address",
          "name": "",
          "type": "address"
        }
      ],
      "stateMutability": "view",
      "type": "function"
    },
    {
      "inputs": [
        {
          "internalType": "uint256",
          "name": "_amount",
          "type": "uint256"
        }
      ],
      "name": "withdraw",
      "outputs": [],
      "stateMutability": "payable",
      "type": "function"
    },
    {
      "inputs": [],
      "name": "withdrawProfits",
      "outputs": [],
      "stateMutability": "nonpayable",
      "type": "function"
    },
    {
      "stateMutability": "payable",
      "type": "receive"
    }
  ],
  "bytecode": "0x608060405266071afd498d000060045534801561001b57600080fd5b5061003861002d61004460201b60201c565b61004c60201b60201c565b60018081905550610110565b600033905090565b60008060009054906101000a900473ffffffffffffffffffffffffffffffffffffffff169050816000806101000a81548173ffffffffffffffffffffffffffffffffffffffff021916908373ffffffffffffffffffffffffffffffffffffffff1602179055508173ffffffffffffffffffffffffffffffffffffffff168173ffffffffffffffffffffffffffffffffffffffff167f8be0079c531659141344cd1fd0a4f28419497f9722a3daafe3b4186f6b6457e060405160405180910390a35050565b61127b8061011f6000396000f3fe6080604052600436106100a05760003560e01c806370a082311161006457806370a082311461015b578063715018a6146101985780638da5cb5b146101af578063a9059cbb146101da578063d0e30db014610203578063f2fde38b1461020d576100a7565b806316c38b3c146100a957806316c61ccc146100d25780632e1a7d4d146100fd57806339913e09146101195780634f8632ba14610130576100a7565b366100a757005b005b3480156100b557600080fd5b506100d060048036038101906100cb9190610c24565b610236565b005b3480156100de57600080fd5b506100e761025b565b6040516100f49190610dc8565b60405180910390f35b61011760048036038101906101129190610c4d565b61026e565b005b34801561012557600080fd5b5061012e610558565b005b34801561013c57600080fd5b50610145610683565b6040516101529190610dad565b60405180910390f35b34801561016757600080fd5b50610182600480360381019061017d9190610bbf565b6106a9565b60405161018f9190610ea3565b60405180910390f35b3480156101a457600080fd5b506101ad6106f2565b005b3480156101bb57600080fd5b506101c4610706565b6040516101d19190610dad565b60405180910390f35b3480156101e657600080fd5b5061020160048036038101906101fc9190610be8565b61072f565b005b61020b61092e565b005b34801561021957600080fd5b50610234600480360381019061022f9190610bbf565b610986565b005b61023e610a0a565b80600260006101000a81548160ff02191690831515021790555050565b600260009054906101000a900460ff1681565b600260015414156102b4576040517f08c379a00000000000000000000000000000000000000000000000000000000081526004016102ab90610e83565b60405180910390fd5b6002600181905550600260009054906101000a900460ff161561030c576040517f08c379a000000000000000000000000000000000000000000000000000000000815260040161030390610e63565b60405180910390fd5b33600260016101000a81548173ffffffffffffffffffffffffffffffffffffffff021916908373ffffffffffffffffffffffffffffffffffffffff160217905550600454341461035b57600080fd5b80600360003373ffffffffffffffffffffffffffffffffffffffff1673ffffffffffffffffffffffffffffffffffffffff1681526020019081526020016000205410156103dd576040517f08c379a00000000000000000000000000000000000000000000000000000000081526004016103d490610e23565b60405180910390fd5b6000600360003373ffffffffffffffffffffffffffffffffffffffff1673ffffffffffffffffffffffffffffffffffffffff168152602001908152602001600020541161045f576040517f08c379a000000000000000000000000000000000000000000000000000000000815260040161045690610e23565b60405180910390fd5b80600360003373ffffffffffffffffffffffffffffffffffffffff1673ffffffffffffffffffffffffffffffffffffffff16815260200190815260200160002060008282546104ae9190610fbb565b925050819055506000600260019054906101000a900473ffffffffffffffffffffffffffffffffffffffff1673ffffffffffffffffffffffffffffffffffffffff16826040516104fd90610d98565b60006040518083038185875af1925050503d806000811461053a576040519150601f19603f3d011682016040523d82523d6000602084013e61053f565b606091505b505090508061054d57600080fd5b506001808190555050565b610560610a0a565b6000736df9768973bfcdb854da6169eccaca2dd213893673ffffffffffffffffffffffffffffffffffffffff16606460054761059c9190610f61565b6105a69190610f30565b6040516105b290610d98565b60006040518083038185875af1925050503d80600081146105ef576040519150601f19603f3d011682016040523d82523d6000602084013e6105f4565b606091505b505090508061060257600080fd5b600061060c610706565b73ffffffffffffffffffffffffffffffffffffffff164760405161062f90610d98565b60006040518083038185875af1925050503d806000811461066c576040519150601f19603f3d011682016040523d82523d6000602084013e610671565b606091505b505090508061067f57600080fd5b5050565b600260019054906101000a900473ffffffffffffffffffffffffffffffffffffffff1681565b6000600360008373ffffffffffffffffffffffffffffffffffffffff1673ffffffffffffffffffffffffffffffffffffffff168152602001908152602001600020549050919050565b6106fa610a0a565b6107046000610a88565b565b60008060009054906101000a900473ffffffffffffffffffffffffffffffffffffffff16905090565b60026001541415610775576040517f08c379a000000000000000000000000000000000000000000000000000000000815260040161076c90610e83565b60405180910390fd5b6002600181905550600260009054906101000a900460ff16156107cd576040517f08c379a00000000000000000000000000000000000000000000000000000000081526004016107c490610e63565b60405180910390fd5b806107d7336106a9565b1015610818576040517f08c379a000000000000000000000000000000000000000000000000000000000815260040161080f90610de3565b60405180910390fd5b61086a81600360003373ffffffffffffffffffffffffffffffffffffffff1673ffffffffffffffffffffffffffffffffffffffff16815260200190815260200160002054610b4c90919063ffffffff16565b506108bd81600360008573ffffffffffffffffffffffffffffffffffffffff1673ffffffffffffffffffffffffffffffffffffffff16815260200190815260200160002054610b6290919063ffffffff16565b508173ffffffffffffffffffffffffffffffffffffffff163373ffffffffffffffffffffffffffffffffffffffff167fddf252ad1be2c89b69c2b068fc378daa952ba7f163c4a11628f55a4df523b3ef8360405161091b9190610ea3565b60405180910390a3600180819055505050565b34600360003373ffffffffffffffffffffffffffffffffffffffff1673ffffffffffffffffffffffffffffffffffffffff168152602001908152602001600020600082825461097d9190610eda565b92505081905550565b61098e610a0a565b600073ffffffffffffffffffffffffffffffffffffffff168173ffffffffffffffffffffffffffffffffffffffff1614156109fe576040517f08c379a00000000000000000000000000000000000000000000000000000000081526004016109f590610e03565b60405180910390fd5b610a0781610a88565b50565b610a12610b78565b73ffffffffffffffffffffffffffffffffffffffff16610a30610706565b73ffffffffffffffffffffffffffffffffffffffff1614610a86576040517f08c379a0000000000000000000000000000000000000000000000000000000008152600401610a7d90610e43565b60405180910390fd5b565b60008060009054906101000a900473ffffffffffffffffffffffffffffffffffffffff169050816000806101000a81548173ffffffffffffffffffffffffffffffffffffffff021916908373ffffffffffffffffffffffffffffffffffffffff1602179055508173ffffffffffffffffffffffffffffffffffffffff168173ffffffffffffffffffffffffffffffffffffffff167f8be0079c531659141344cd1fd0a4f28419497f9722a3daafe3b4186f6b6457e060405160405180910390a35050565b60008183610b5a9190610fbb565b905092915050565b60008183610b709190610eda565b905092915050565b600033905090565b600081359050610b8f81611200565b92915050565b600081359050610ba481611217565b92915050565b600081359050610bb98161122e565b92915050565b600060208284031215610bd157600080fd5b6000610bdf84828501610b80565b91505092915050565b60008060408385031215610bfb57600080fd5b6000610c0985828601610b80565b9250506020610c1a85828601610baa565b9150509250929050565b600060208284031215610c3657600080fd5b6000610c4484828501610b95565b91505092915050565b600060208284031215610c5f57600080fd5b6000610c6d84828501610baa565b91505092915050565b610c7f81610fef565b82525050565b610c8e81611001565b82525050565b6000610ca1602283610ec9565b9150610cac82611095565b604082019050919050565b6000610cc4602683610ec9565b9150610ccf826110e4565b604082019050919050565b6000610ce7602283610ec9565b9150610cf282611133565b604082019050919050565b6000610d0a602083610ec9565b9150610d1582611182565b602082019050919050565b6000610d2d601983610ec9565b9150610d38826111ab565b602082019050919050565b6000610d50600083610ebe565b9150610d5b826111d4565b600082019050919050565b6000610d73601f83610ec9565b9150610d7e826111d7565b602082019050919050565b610d928161102d565b82525050565b6000610da382610d43565b9150819050919050565b6000602082019050610dc26000830184610c76565b92915050565b6000602082019050610ddd6000830184610c85565b92915050565b60006020820190508181036000830152610dfc81610c94565b9050919050565b60006020820190508181036000830152610e1c81610cb7565b9050919050565b60006020820190508181036000830152610e3c81610cda565b9050919050565b60006020820190508181036000830152610e5c81610cfd565b9050919050565b60006020820190508181036000830152610e7c81610d20565b9050919050565b60006020820190508181036000830152610e9c81610d66565b9050919050565b6000602082019050610eb86000830184610d89565b92915050565b600081905092915050565b600082825260208201905092915050565b6000610ee58261102d565b9150610ef08361102d565b9250827fffffffffffffffffffffffffffffffffffffffffffffffffffffffffffffffff03821115610f2557610f24611037565b5b828201905092915050565b6000610f3b8261102d565b9150610f468361102d565b925082610f5657610f55611066565b5b828204905092915050565b6000610f6c8261102d565b9150610f778361102d565b9250817fffffffffffffffffffffffffffffffffffffffffffffffffffffffffffffffff0483118215151615610fb057610faf611037565b5b828202905092915050565b6000610fc68261102d565b9150610fd18361102d565b925082821015610fe457610fe3611037565b5b828203905092915050565b6000610ffa8261100d565b9050919050565b60008115159050919050565b600073ffffffffffffffffffffffffffffffffffffffff82169050919050565b6000819050919050565b7f4e487b7100000000000000000000000000000000000000000000000000000000600052601160045260246000fd5b7f4e487b7100000000000000000000000000000000000000000000000000000000600052601260045260246000fd5b7f596f7520646f6e2774206861766520656e6f75676820746f207472616e73666560008201527f7221000000000000000000000000000000000000000000000000000000000000602082015250565b7f4f776e61626c653a206e6577206f776e657220697320746865207a65726f206160008201527f6464726573730000000000000000000000000000000000000000000000000000602082015250565b7f596f7520646f6e2774206861766520656e6f75676820746f207769746864726160008201527f7721000000000000000000000000000000000000000000000000000000000000602082015250565b7f4f776e61626c653a2063616c6c6572206973206e6f7420746865206f776e6572600082015250565b7f436f6e74726163742063757272656e746c792070617573656400000000000000600082015250565b50565b7f5265656e7472616e637947756172643a207265656e7472616e742063616c6c00600082015250565b61120981610fef565b811461121457600080fd5b50565b61122081611001565b811461122b57600080fd5b50565b6112378161102d565b811461124257600080fd5b5056fea2646970667358221220b9ec6a606b3670de5dc4c0497d483d2170d874141f01ec6769088cc1ae5bcf8864736f6c63430008040033",
  "linkReferences": {},
  "deployedLinkReferences": {}
}