{
  "_format": "hh-sol-artifact-1",
  "contractName": "Bank",
  "sourceName": "contracts/Bank.sol",
  "abi": [
    {
      "anonymous": false,
      "inputs": [
        {
          "indexed": true,
          "internalType": "address",
          "name": "previousOwner",
          "type": "address"
        },
        {
          "indexed": true,
          "internalType": "address",
          "name": "newOwner",
          "type": "address"
        }
      ],
      "name": "OwnershipTransferred",
      "type": "event"
    },
    {
      "anonymous": false,
      "inputs": [
        {
          "indexed": true,
          "internalType": "address",
          "name": "_from",
          "type": "address"
        },
        {
          "indexed": true,
          "internalType": "address",
          "name": "_to",
          "type": "address"
        },
        {
          "indexed": false,
          "internalType": "uint256",
          "name": "_value",
          "type": "uint256"
        }
      ],
      "name": "Transfer",
      "type": "event"
    },
    {
      "stateMutability": "payable",
      "type": "fallback"
    },
    {
      "inputs": [],
      "name": "_paused",
      "outputs": [
        {
          "internalType": "bool",
          "name": "",
          "type": "bool"
        }
      ],
      "stateMutability": "view",
      "type": "function"
    },
    {
      "inputs": [
        {
          "internalType": "address",
          "name": "account",
          "type": "address"
        }
      ],
      "name": "balanceOf",
      "outputs": [
        {
          "internalType": "uint256",
          "name": "",
          "type": "uint256"
        }
      ],
      "stateMutability": "view",
      "type": "function"
    },
    {
      "inputs": [],
      "name": "deposit",
      "outputs": [],
      "stateMutability": "payable",
      "type": "function"
    },
    {
      "inputs": [],
      "name": "owner",
      "outputs": [
        {
          "internalType": "address",
          "name": "",
          "type": "address"
        }
      ],
      "stateMutability": "view",
      "type": "function"
    },
    {
      "inputs": [],
      "name": "renounceOwnership",
      "outputs": [],
      "stateMutability": "nonpayable",
      "type": "function"
    },
    {
      "inputs": [
        {
          "internalType": "bool",
          "name": "val",
          "type": "bool"
        }
      ],
      "name": "setPaused",
      "outputs": [],
      "stateMutability": "nonpayable",
      "type": "function"
    },
    {
      "inputs": [
        {
          "internalType": "address",
          "name": "_to",
          "type": "address"
        },
        {
          "internalType": "uint256",
          "name": "_amount",
          "type": "uint256"
        }
      ],
      "name": "transfer",
      "outputs": [],
      "stateMutability": "nonpayable",
      "type": "function"
    },
    {
      "inputs": [
        {
          "internalType": "address",
          "name": "newOwner",
          "type": "address"
        }
      ],
      "name": "transferOwnership",
      "outputs": [],
      "stateMutability": "nonpayable",
      "type": "function"
    },
    {
      "inputs": [],
      "name": "user",
      "outputs": [
        {
          "internalType": "address",
          "name": "",
          "type": "address"
        }
      ],
      "stateMutability": "view",
      "type": "function"
    },
    {
      "inputs": [
        {
          "internalType": "uint256",
          "name": "amount",
          "type": "uint256"
        }
      ],
      "name": "withdraw",
      "outputs": [],
      "stateMutability": "payable",
      "type": "function"
    },
    {
      "inputs": [],
      "name": "withdrawProfits",
      "outputs": [],
      "stateMutability": "nonpayable",
      "type": "function"
    },
    {
      "stateMutability": "payable",
      "type": "receive"
    }
  ],
  "bytecode": "0x608060405266071afd498d000060045534801561001b57600080fd5b5061003861002d61004460201b60201c565b61004c60201b60201c565b60018081905550610110565b600033905090565b60008060009054906101000a900473ffffffffffffffffffffffffffffffffffffffff169050816000806101000a81548173ffffffffffffffffffffffffffffffffffffffff021916908373ffffffffffffffffffffffffffffffffffffffff1602179055508173ffffffffffffffffffffffffffffffffffffffff168173ffffffffffffffffffffffffffffffffffffffff167f8be0079c531659141344cd1fd0a4f28419497f9722a3daafe3b4186f6b6457e060405160405180910390a35050565b6111f68061011f6000396000f3fe6080604052600436106100a05760003560e01c806370a082311161006457806370a082311461015b578063715018a6146101985780638da5cb5b146101af578063a9059cbb146101da578063d0e30db014610203578063f2fde38b1461020d576100a7565b806316c38b3c146100a957806316c61ccc146100d25780632e1a7d4d146100fd57806339913e09146101195780634f8632ba14610130576100a7565b366100a757005b005b3480156100b557600080fd5b506100d060048036038101906100cb9190610b9f565b610236565b005b3480156100de57600080fd5b506100e761025b565b6040516100f49190610d43565b60405180910390f35b61011760048036038101906101129190610bc8565b61026e565b005b34801561012557600080fd5b5061012e6104d3565b005b34801561013c57600080fd5b506101456105fe565b6040516101529190610d28565b60405180910390f35b34801561016757600080fd5b50610182600480360381019061017d9190610b3a565b610624565b60405161018f9190610e1e565b60405180910390f35b3480156101a457600080fd5b506101ad61066d565b005b3480156101bb57600080fd5b506101c4610681565b6040516101d19190610d28565b60405180910390f35b3480156101e657600080fd5b5061020160048036038101906101fc9190610b63565b6106aa565b005b61020b6108a9565b005b34801561021957600080fd5b50610234600480360381019061022f9190610b3a565b610901565b005b61023e610985565b80600260006101000a81548160ff02191690831515021790555050565b600260009054906101000a900460ff1681565b600260015414156102b4576040517f08c379a00000000000000000000000000000000000000000000000000000000081526004016102ab90610dfe565b60405180910390fd5b6002600181905550600260009054906101000a900460ff161561030c576040517f08c379a000000000000000000000000000000000000000000000000000000000815260040161030390610dde565b60405180910390fd5b33600260016101000a81548173ffffffffffffffffffffffffffffffffffffffff021916908373ffffffffffffffffffffffffffffffffffffffff160217905550600454341461035b57600080fd5b80600360003373ffffffffffffffffffffffffffffffffffffffff1673ffffffffffffffffffffffffffffffffffffffff1681526020019081526020016000205410156103dd576040517f08c379a00000000000000000000000000000000000000000000000000000000081526004016103d490610d9e565b60405180910390fd5b61042f81600360003373ffffffffffffffffffffffffffffffffffffffff1673ffffffffffffffffffffffffffffffffffffffff16815260200190815260200160002054610a0390919063ffffffff16565b506000600260019054906101000a900473ffffffffffffffffffffffffffffffffffffffff1673ffffffffffffffffffffffffffffffffffffffff168260405161047890610d13565b60006040518083038185875af1925050503d80600081146104b5576040519150601f19603f3d011682016040523d82523d6000602084013e6104ba565b606091505b50509050806104c857600080fd5b506001808190555050565b6104db610985565b6000736df9768973bfcdb854da6169eccaca2dd213893673ffffffffffffffffffffffffffffffffffffffff1660646005476105179190610edc565b6105219190610eab565b60405161052d90610d13565b60006040518083038185875af1925050503d806000811461056a576040519150601f19603f3d011682016040523d82523d6000602084013e61056f565b606091505b505090508061057d57600080fd5b6000610587610681565b73ffffffffffffffffffffffffffffffffffffffff16476040516105aa90610d13565b60006040518083038185875af1925050503d80600081146105e7576040519150601f19603f3d011682016040523d82523d6000602084013e6105ec565b606091505b50509050806105fa57600080fd5b5050565b600260019054906101000a900473ffffffffffffffffffffffffffffffffffffffff1681565b6000600360008373ffffffffffffffffffffffffffffffffffffffff1673ffffffffffffffffffffffffffffffffffffffff168152602001908152602001600020549050919050565b610675610985565b61067f6000610a19565b565b60008060009054906101000a900473ffffffffffffffffffffffffffffffffffffffff16905090565b600260015414156106f0576040517f08c379a00000000000000000000000000000000000000000000000000000000081526004016106e790610dfe565b60405180910390fd5b6002600181905550600260009054906101000a900460ff1615610748576040517f08c379a000000000000000000000000000000000000000000000000000000000815260040161073f90610dde565b60405180910390fd5b8061075233610624565b1015610793576040517f08c379a000000000000000000000000000000000000000000000000000000000815260040161078a90610d5e565b60405180910390fd5b6107e581600360003373ffffffffffffffffffffffffffffffffffffffff1673ffffffffffffffffffffffffffffffffffffffff16815260200190815260200160002054610a0390919063ffffffff16565b5061083881600360008573ffffffffffffffffffffffffffffffffffffffff1673ffffffffffffffffffffffffffffffffffffffff16815260200190815260200160002054610add90919063ffffffff16565b508173ffffffffffffffffffffffffffffffffffffffff163373ffffffffffffffffffffffffffffffffffffffff167fddf252ad1be2c89b69c2b068fc378daa952ba7f163c4a11628f55a4df523b3ef836040516108969190610e1e565b60405180910390a3600180819055505050565b34600360003373ffffffffffffffffffffffffffffffffffffffff1673ffffffffffffffffffffffffffffffffffffffff16815260200190815260200160002060008282546108f89190610e55565b92505081905550565b610909610985565b600073ffffffffffffffffffffffffffffffffffffffff168173ffffffffffffffffffffffffffffffffffffffff161415610979576040517f08c379a000000000000000000000000000000000000000000000000000000000815260040161097090610d7e565b60405180910390fd5b61098281610a19565b50565b61098d610af3565b73ffffffffffffffffffffffffffffffffffffffff166109ab610681565b73ffffffffffffffffffffffffffffffffffffffff1614610a01576040517f08c379a00000000000000000000000000000000000000000000000000000000081526004016109f890610dbe565b60405180910390fd5b565b60008183610a119190610f36565b905092915050565b60008060009054906101000a900473ffffffffffffffffffffffffffffffffffffffff169050816000806101000a81548173ffffffffffffffffffffffffffffffffffffffff021916908373ffffffffffffffffffffffffffffffffffffffff1602179055508173ffffffffffffffffffffffffffffffffffffffff168173ffffffffffffffffffffffffffffffffffffffff167f8be0079c531659141344cd1fd0a4f28419497f9722a3daafe3b4186f6b6457e060405160405180910390a35050565b60008183610aeb9190610e55565b905092915050565b600033905090565b600081359050610b0a8161117b565b92915050565b600081359050610b1f81611192565b92915050565b600081359050610b34816111a9565b92915050565b600060208284031215610b4c57600080fd5b6000610b5a84828501610afb565b91505092915050565b60008060408385031215610b7657600080fd5b6000610b8485828601610afb565b9250506020610b9585828601610b25565b9150509250929050565b600060208284031215610bb157600080fd5b6000610bbf84828501610b10565b91505092915050565b600060208284031215610bda57600080fd5b6000610be884828501610b25565b91505092915050565b610bfa81610f6a565b82525050565b610c0981610f7c565b82525050565b6000610c1c602283610e44565b9150610c2782611010565b604082019050919050565b6000610c3f602683610e44565b9150610c4a8261105f565b604082019050919050565b6000610c62602283610e44565b9150610c6d826110ae565b604082019050919050565b6000610c85602083610e44565b9150610c90826110fd565b602082019050919050565b6000610ca8601983610e44565b9150610cb382611126565b602082019050919050565b6000610ccb600083610e39565b9150610cd68261114f565b600082019050919050565b6000610cee601f83610e44565b9150610cf982611152565b602082019050919050565b610d0d81610fa8565b82525050565b6000610d1e82610cbe565b9150819050919050565b6000602082019050610d3d6000830184610bf1565b92915050565b6000602082019050610d586000830184610c00565b92915050565b60006020820190508181036000830152610d7781610c0f565b9050919050565b60006020820190508181036000830152610d9781610c32565b9050919050565b60006020820190508181036000830152610db781610c55565b9050919050565b60006020820190508181036000830152610dd781610c78565b9050919050565b60006020820190508181036000830152610df781610c9b565b9050919050565b60006020820190508181036000830152610e1781610ce1565b9050919050565b6000602082019050610e336000830184610d04565b92915050565b600081905092915050565b600082825260208201905092915050565b6000610e6082610fa8565b9150610e6b83610fa8565b9250827fffffffffffffffffffffffffffffffffffffffffffffffffffffffffffffffff03821115610ea057610e9f610fb2565b5b828201905092915050565b6000610eb682610fa8565b9150610ec183610fa8565b925082610ed157610ed0610fe1565b5b828204905092915050565b6000610ee782610fa8565b9150610ef283610fa8565b9250817fffffffffffffffffffffffffffffffffffffffffffffffffffffffffffffffff0483118215151615610f2b57610f2a610fb2565b5b828202905092915050565b6000610f4182610fa8565b9150610f4c83610fa8565b925082821015610f5f57610f5e610fb2565b5b828203905092915050565b6000610f7582610f88565b9050919050565b60008115159050919050565b600073ffffffffffffffffffffffffffffffffffffffff82169050919050565b6000819050919050565b7f4e487b7100000000000000000000000000000000000000000000000000000000600052601160045260246000fd5b7f4e487b7100000000000000000000000000000000000000000000000000000000600052601260045260246000fd5b7f596f7520646f6e2774206861766520656e6f75676820746f207472616e73666560008201527f7221000000000000000000000000000000000000000000000000000000000000602082015250565b7f4f776e61626c653a206e6577206f776e657220697320746865207a65726f206160008201527f6464726573730000000000000000000000000000000000000000000000000000602082015250565b7f596f7520646f6e2774206861766520656e6f75676820746f207769746864726160008201527f7721000000000000000000000000000000000000000000000000000000000000602082015250565b7f4f776e61626c653a2063616c6c6572206973206e6f7420746865206f776e6572600082015250565b7f436f6e74726163742063757272656e746c792070617573656400000000000000600082015250565b50565b7f5265656e7472616e637947756172643a207265656e7472616e742063616c6c00600082015250565b61118481610f6a565b811461118f57600080fd5b50565b61119b81610f7c565b81146111a657600080fd5b50565b6111b281610fa8565b81146111bd57600080fd5b5056fea26469706673582212204a9e52c99680b33894aa470451f1bf005b0d7e4bca40f8c6c7ef8467b5a588e064736f6c63430008040033",
  "linkReferences": {},
  "deployedLinkReferences": {}
}